:020000020000FC
:0C0000000C941C000C9469000C949D00F2
:040024000C948A00AE
:100034000C946E0048E04EBF4FEF4DBF002700E028
:100044000093800005EC009381000FE00093B10061
:1000540000E00093840000E00093850000E000933A
:10006400B20000E000932A000FE00093690003E06F
:100074000DBB789455278827002750931E00509372
:100084002A0050932B0001E000937000089500278C
:1000940000E007B9579A569A559A549A209822988C
:1000A400239806B305FFFDCF06BB9091860005E0BB
:1000B4000093810006B305FFFDCFA091860006BB27
:1000C400A91B92E05395A91BE8F75A95FFCFD2DFFD
:1000D4000F9158B942D0E5CF0F930FB70F9300E0BB
:1000E4000A130AC000936F00581B503019F45F9A2A
:1000F40053D002C05E9A46D011270027552700919D
:100104002B000F910FBF0F9101FFE2CF0F9117C08A
:10011400DF93DFB7DF9313951D3321F411275F9825
:100124005E985D9833953C3011F433273395DF9115
:10013400DFBFDF91189501E000932B009BDF7894DB
:10014400832F0F9300912A00063099F006D003956F
:1001540000932A000F910C9453005C9A05D05C988C
:1001640003E000936F00089525E32A95F1F700005A
:10017400089500E00093700080911E0087FD5E9A50
:1001840088B9FECF0F930FB70F9300911E000A9505
:100194000F910FBF0F9108950F930FB70F93009115
:1001A4001E000395093049F0039500931E0003FDDA
:1001B40000270F910FBF0F910895002700E10093CE
:0401C4001E00F7CF53
:00000001FF
