:020000020000FC
:0C0000000C941C000C9460000C94960002
:040024000C948200B6
:100034000C94650048E04EBF4FEF4DBF002700E031
:100044000093800005EC009381000FE00093B10061
:1000540001E00093700000E00093840000E000934E
:10006400850000E00093B20000E000932A000FE056
:100074000093690003E00DBB7894002700E007B902
:10008400579A569A559A549A20982398229815C0AC
:1000940006B305FFFDCF06BB9091860005E00093F3
:1000A400810006B305FFFDCFA091860006BBA91B06
:1000B40092E05395A91BE8F75A95FFCF79D00F9199
:1000C40058B944D0E5CF78940F930FB70F930091AC
:1000D4002B0001FFF4CF00E05F9A0A130AC00093DB
:1000E4006F00581B503019F45F9A4CD002C05E9ACE
:1000F4003FD01127002755270F910FBF0F9118C02C
:100104007894DF93DFB7DF9313951D3321F4112720
:100114005F985E985D9833953C3011F4332733959E
:10012400DF91DFBFDF91189501E000932B0040D0F1
:100134007894832F0F9300912A00063099F006D00B
:10014400039500932A000F910C944A005C9A05D001
:100154005C9803E000936F00089525E32A95F1F776
:100164000000089580911E0087FD5E9A88B9FECF35
:100174000F930FB70F9300911E000A950F910FBFB5
:100184000F9108950F930FB70F9300911E000395DD
:10019400093049F0039500931E0003FD00270F91D9
:1001A4000FBF0F910895002700E100931E00F7CFC1
:1001B40055278827002750931E0050932A005093F8
:0401C4002B0008956F
:00000001FF
