:020000020000FC
:040000000C941C0040
:040024000C946B00CD
:100034000C945B0048E04EBF4FEF4DBF002700E03B
:100044000093800005EC009381000FE00093B10061
:1000540001E00093700000E00093840000E000934E
:10006400850000E00093B20000E000932A0020988D
:100074007894002700E007B9579A569A549A06B321
:1000840005FFFDCF06BB9091860005E0009381003B
:1000940006B305FFFDCFA091860006BBA91B92E025
:1000A4005395A91BE8F75A9504C00F9158B928D065
:1000B400E6CF00E000936F00581B503011F45F9AB4
:1000C40001C05E9A0F9300912B0001FFEECF0F91B8
:1000D40012C0DF93DFB7DF9313951D3309F41127A3
:1000E40033953C3009F43327DF91DFBFDF91189556
:1000F40001E000932B00832F03D088B90C944100B6
:100104005C9A05D05C9803E000936F00089525E3A2
:080114002A95F1F7000008959F
:00000001FF
