:020000020000FC
:040000000C941C0040
:040024000C945C00DC
:100034000C945B0048E04EBF4FEF4DBF002700E03B
:100044000093800005EC0093810003E000936F00AF
:100054000FE00093B10001E00093700000E0009312
:10006400840000E00093850000E00093B200209833
:100074007894002700E007B9579A569A559A5D9AE2
:1000840024D05D9806B305FFFDCF06BB9091860092
:1000940005E0009381005F9A06B305FFFDCFA091B0
:1000A400860006BBA91B92E05395A91BE8F75A9555
:1000B400FFCF1895DF93DFB7DF931395163F09F44D
:1000C4005F98DF91DFBFDF91189525E32A95F1F75B
:0400D400000008958B
:00000001FF
