:020000020000FC
:040000000C941C0040
:040024000C946500D3
:100034000C945B0048E04EBF4FEF4DBF002700E03B
:100044000093800005EC009381000FE00093B10061
:1000540001E00093700000E00093840000E000934E
:10006400850000E00093B20020987894002700E017
:1000740007B9579A569A559A06B305FFFDCF06BBA2
:100084009091860005E00093810006B305FFFDCF43
:10009400A091860006BBA91B92E05395A91BE8F723
:1000A4005A950F9300912B0001FF00C058B922D03C
:1000B400FDCF00E000936F00581B503011F45F9A9D
:1000C40018955E9A1895DF93DFB7DF9313951D3368
:1000D40009F4112733953C3009F43327DF91DFBF4E
:1000E400DF91189501E000932B00832F03D088B98A
:1000F4000C943E005D9A05D05D9803E000936F0078
:0C010400089525E32A95F1F70000089506
:00000001FF
